{
  "contractName": "Voucher",
  "abi": [
    {
      "inputs": [],
      "stateMutability": "nonpayable",
      "type": "constructor"
    },
    {
      "anonymous": false,
      "inputs": [
        {
          "indexed": true,
          "internalType": "address",
          "name": "owner",
          "type": "address"
        },
        {
          "indexed": true,
          "internalType": "address",
          "name": "approved",
          "type": "address"
        },
        {
          "indexed": true,
          "internalType": "uint256",
          "name": "tokenId",
          "type": "uint256"
        }
      ],
      "name": "Approval",
      "type": "event"
    },
    {
      "anonymous": false,
      "inputs": [
        {
          "indexed": true,
          "internalType": "address",
          "name": "owner",
          "type": "address"
        },
        {
          "indexed": true,
          "internalType": "address",
          "name": "operator",
          "type": "address"
        },
        {
          "indexed": false,
          "internalType": "bool",
          "name": "approved",
          "type": "bool"
        }
      ],
      "name": "ApprovalForAll",
      "type": "event"
    },
    {
      "anonymous": false,
      "inputs": [
        {
          "indexed": true,
          "internalType": "address",
          "name": "merchant",
          "type": "address"
        },
        {
          "indexed": false,
          "internalType": "bool",
          "name": "approved",
          "type": "bool"
        }
      ],
      "name": "MerchantApproved",
      "type": "event"
    },
    {
      "anonymous": false,
      "inputs": [
        {
          "indexed": true,
          "internalType": "address",
          "name": "previousOwner",
          "type": "address"
        },
        {
          "indexed": true,
          "internalType": "address",
          "name": "newOwner",
          "type": "address"
        }
      ],
      "name": "OwnershipTransferred",
      "type": "event"
    },
    {
      "anonymous": false,
      "inputs": [
        {
          "indexed": true,
          "internalType": "address",
          "name": "from",
          "type": "address"
        },
        {
          "indexed": true,
          "internalType": "address",
          "name": "to",
          "type": "address"
        },
        {
          "indexed": true,
          "internalType": "uint256",
          "name": "tokenId",
          "type": "uint256"
        }
      ],
      "name": "Transfer",
      "type": "event"
    },
    {
      "anonymous": false,
      "inputs": [
        {
          "indexed": true,
          "internalType": "uint256",
          "name": "tokenId",
          "type": "uint256"
        },
        {
          "indexed": true,
          "internalType": "uint16",
          "name": "programId",
          "type": "uint16"
        },
        {
          "indexed": true,
          "internalType": "address",
          "name": "recipient",
          "type": "address"
        },
        {
          "indexed": false,
          "internalType": "uint256",
          "name": "amount",
          "type": "uint256"
        },
        {
          "indexed": false,
          "internalType": "uint256",
          "name": "expiryDate",
          "type": "uint256"
        },
        {
          "indexed": false,
          "internalType": "string",
          "name": "tokenURI",
          "type": "string"
        }
      ],
      "name": "VoucherMinted",
      "type": "event"
    },
    {
      "anonymous": false,
      "inputs": [
        {
          "indexed": true,
          "internalType": "uint16",
          "name": "programId",
          "type": "uint16"
        },
        {
          "indexed": true,
          "internalType": "address",
          "name": "issuer",
          "type": "address"
        },
        {
          "indexed": false,
          "internalType": "string",
          "name": "name",
          "type": "string"
        },
        {
          "indexed": false,
          "internalType": "uint256",
          "name": "amount",
          "type": "uint256"
        },
        {
          "indexed": false,
          "internalType": "uint256",
          "name": "expiryDate",
          "type": "uint256"
        },
        {
          "indexed": false,
          "internalType": "uint16",
          "name": "totalSupply",
          "type": "uint16"
        },
        {
          "indexed": false,
          "internalType": "string",
          "name": "category",
          "type": "string"
        }
      ],
      "name": "VoucherProgramCreated",
      "type": "event"
    },
    {
      "anonymous": false,
      "inputs": [
        {
          "indexed": true,
          "internalType": "uint256",
          "name": "tokenId",
          "type": "uint256"
        },
        {
          "indexed": true,
          "internalType": "address",
          "name": "user",
          "type": "address"
        },
        {
          "indexed": true,
          "internalType": "address",
          "name": "merchant",
          "type": "address"
        },
        {
          "indexed": false,
          "internalType": "uint256",
          "name": "amount",
          "type": "uint256"
        },
        {
          "indexed": false,
          "internalType": "uint256",
          "name": "oldValue",
          "type": "uint256"
        },
        {
          "indexed": false,
          "internalType": "uint256",
          "name": "newValue",
          "type": "uint256"
        },
        {
          "indexed": false,
          "internalType": "bytes32",
          "name": "metadataHash",
          "type": "bytes32"
        }
      ],
      "name": "VoucherUsed",
      "type": "event"
    },
    {
      "inputs": [],
      "name": "USE_VOUCHER_TYPEHASH",
      "outputs": [
        {
          "internalType": "bytes32",
          "name": "",
          "type": "bytes32"
        }
      ],
      "stateMutability": "view",
      "type": "function"
    },
    {
      "inputs": [
        {
          "internalType": "address",
          "name": "to",
          "type": "address"
        },
        {
          "internalType": "uint256",
          "name": "tokenId",
          "type": "uint256"
        }
      ],
      "name": "approve",
      "outputs": [],
      "stateMutability": "nonpayable",
      "type": "function"
    },
    {
      "inputs": [
        {
          "internalType": "address",
          "name": "",
          "type": "address"
        }
      ],
      "name": "approvedMerchant",
      "outputs": [
        {
          "internalType": "bool",
          "name": "",
          "type": "bool"
        }
      ],
      "stateMutability": "view",
      "type": "function"
    },
    {
      "inputs": [
        {
          "internalType": "address",
          "name": "owner",
          "type": "address"
        }
      ],
      "name": "balanceOf",
      "outputs": [
        {
          "internalType": "uint256",
          "name": "",
          "type": "uint256"
        }
      ],
      "stateMutability": "view",
      "type": "function"
    },
    {
      "inputs": [
        {
          "internalType": "uint256",
          "name": "tokenId",
          "type": "uint256"
        }
      ],
      "name": "getApproved",
      "outputs": [
        {
          "internalType": "address",
          "name": "",
          "type": "address"
        }
      ],
      "stateMutability": "view",
      "type": "function"
    },
    {
      "inputs": [
        {
          "internalType": "address",
          "name": "owner",
          "type": "address"
        },
        {
          "internalType": "address",
          "name": "operator",
          "type": "address"
        }
      ],
      "name": "isApprovedForAll",
      "outputs": [
        {
          "internalType": "bool",
          "name": "",
          "type": "bool"
        }
      ],
      "stateMutability": "view",
      "type": "function"
    },
    {
      "inputs": [],
      "name": "name",
      "outputs": [
        {
          "internalType": "string",
          "name": "",
          "type": "string"
        }
      ],
      "stateMutability": "view",
      "type": "function"
    },
    {
      "inputs": [],
      "name": "owner",
      "outputs": [
        {
          "internalType": "address",
          "name": "",
          "type": "address"
        }
      ],
      "stateMutability": "view",
      "type": "function"
    },
    {
      "inputs": [
        {
          "internalType": "uint256",
          "name": "tokenId",
          "type": "uint256"
        }
      ],
      "name": "ownerOf",
      "outputs": [
        {
          "internalType": "address",
          "name": "",
          "type": "address"
        }
      ],
      "stateMutability": "view",
      "type": "function"
    },
    {
      "inputs": [],
      "name": "renounceOwnership",
      "outputs": [],
      "stateMutability": "nonpayable",
      "type": "function"
    },
    {
      "inputs": [
        {
          "internalType": "address",
          "name": "from",
          "type": "address"
        },
        {
          "internalType": "address",
          "name": "to",
          "type": "address"
        },
        {
          "internalType": "uint256",
          "name": "tokenId",
          "type": "uint256"
        }
      ],
      "name": "safeTransferFrom",
      "outputs": [],
      "stateMutability": "nonpayable",
      "type": "function"
    },
    {
      "inputs": [
        {
          "internalType": "address",
          "name": "from",
          "type": "address"
        },
        {
          "internalType": "address",
          "name": "to",
          "type": "address"
        },
        {
          "internalType": "uint256",
          "name": "tokenId",
          "type": "uint256"
        },
        {
          "internalType": "bytes",
          "name": "data",
          "type": "bytes"
        }
      ],
      "name": "safeTransferFrom",
      "outputs": [],
      "stateMutability": "nonpayable",
      "type": "function"
    },
    {
      "inputs": [
        {
          "internalType": "address",
          "name": "operator",
          "type": "address"
        },
        {
          "internalType": "bool",
          "name": "approved",
          "type": "bool"
        }
      ],
      "name": "setApprovalForAll",
      "outputs": [],
      "stateMutability": "nonpayable",
      "type": "function"
    },
    {
      "inputs": [],
      "name": "symbol",
      "outputs": [
        {
          "internalType": "string",
          "name": "",
          "type": "string"
        }
      ],
      "stateMutability": "view",
      "type": "function"
    },
    {
      "inputs": [
        {
          "internalType": "uint256",
          "name": "index",
          "type": "uint256"
        }
      ],
      "name": "tokenByIndex",
      "outputs": [
        {
          "internalType": "uint256",
          "name": "",
          "type": "uint256"
        }
      ],
      "stateMutability": "view",
      "type": "function"
    },
    {
      "inputs": [
        {
          "internalType": "address",
          "name": "owner",
          "type": "address"
        },
        {
          "internalType": "uint256",
          "name": "index",
          "type": "uint256"
        }
      ],
      "name": "tokenOfOwnerByIndex",
      "outputs": [
        {
          "internalType": "uint256",
          "name": "",
          "type": "uint256"
        }
      ],
      "stateMutability": "view",
      "type": "function"
    },
    {
      "inputs": [],
      "name": "totalSupply",
      "outputs": [
        {
          "internalType": "uint256",
          "name": "",
          "type": "uint256"
        }
      ],
      "stateMutability": "view",
      "type": "function"
    },
    {
      "inputs": [
        {
          "internalType": "address",
          "name": "from",
          "type": "address"
        },
        {
          "internalType": "address",
          "name": "to",
          "type": "address"
        },
        {
          "internalType": "uint256",
          "name": "tokenId",
          "type": "uint256"
        }
      ],
      "name": "transferFrom",
      "outputs": [],
      "stateMutability": "nonpayable",
      "type": "function"
    },
    {
      "inputs": [
        {
          "internalType": "address",
          "name": "newOwner",
          "type": "address"
        }
      ],
      "name": "transferOwnership",
      "outputs": [],
      "stateMutability": "nonpayable",
      "type": "function"
    },
    {
      "inputs": [
        {
          "internalType": "uint256",
          "name": "",
          "type": "uint256"
        }
      ],
      "name": "useNonce",
      "outputs": [
        {
          "internalType": "uint256",
          "name": "",
          "type": "uint256"
        }
      ],
      "stateMutability": "view",
      "type": "function"
    },
    {
      "inputs": [
        {
          "internalType": "uint256",
          "name": "",
          "type": "uint256"
        }
      ],
      "name": "voucherValue",
      "outputs": [
        {
          "internalType": "uint256",
          "name": "",
          "type": "uint256"
        }
      ],
      "stateMutability": "view",
      "type": "function"
    },
    {
      "inputs": [
        {
          "internalType": "uint16",
          "name": "programId",
          "type": "uint16"
        },
        {
          "internalType": "string",
          "name": "name",
          "type": "string"
        },
        {
          "internalType": "uint256",
          "name": "amount",
          "type": "uint256"
        },
        {
          "internalType": "uint256",
          "name": "expiryDate",
          "type": "uint256"
        },
        {
          "internalType": "uint16",
          "name": "totalSupply",
          "type": "uint16"
        },
        {
          "internalType": "string",
          "name": "category",
          "type": "string"
        }
      ],
      "name": "createVoucherProgram",
      "outputs": [
        {
          "internalType": "uint16",
          "name": "",
          "type": "uint16"
        }
      ],
      "stateMutability": "nonpayable",
      "type": "function"
    },
    {
      "inputs": [
        {
          "internalType": "uint16",
          "name": "programId",
          "type": "uint16"
        },
        {
          "internalType": "address",
          "name": "recipient",
          "type": "address"
        },
        {
          "internalType": "string",
          "name": "uri",
          "type": "string"
        }
      ],
      "name": "mintVoucher",
      "outputs": [
        {
          "internalType": "uint256",
          "name": "",
          "type": "uint256"
        }
      ],
      "stateMutability": "nonpayable",
      "type": "function"
    },
    {
      "inputs": [
        {
          "internalType": "address",
          "name": "merchant",
          "type": "address"
        },
        {
          "internalType": "bool",
          "name": "approved",
          "type": "bool"
        }
      ],
      "name": "approveMerchant",
      "outputs": [],
      "stateMutability": "nonpayable",
      "type": "function"
    },
    {
      "inputs": [
        {
          "internalType": "uint256",
          "name": "tokenId",
          "type": "uint256"
        },
        {
          "internalType": "address",
          "name": "merchant",
          "type": "address"
        },
        {
          "internalType": "uint256",
          "name": "amount",
          "type": "uint256"
        },
        {
          "internalType": "bytes32",
          "name": "metadataHash",
          "type": "bytes32"
        }
      ],
      "name": "useVoucher",
      "outputs": [
        {
          "internalType": "bool",
          "name": "",
          "type": "bool"
        }
      ],
      "stateMutability": "nonpayable",
      "type": "function"
    },
    {
      "inputs": [
        {
          "internalType": "uint256",
          "name": "tokenId",
          "type": "uint256"
        },
        {
          "internalType": "uint256",
          "name": "amount",
          "type": "uint256"
        },
        {
          "internalType": "bytes32",
          "name": "metadataHash",
          "type": "bytes32"
        },
        {
          "internalType": "uint256",
          "name": "deadline",
          "type": "uint256"
        },
        {
          "internalType": "bytes",
          "name": "ownerSignature",
          "type": "bytes"
        }
      ],
      "name": "useVoucherByMerchant",
      "outputs": [
        {
          "internalType": "bool",
          "name": "",
          "type": "bool"
        }
      ],
      "stateMutability": "nonpayable",
      "type": "function"
    },
    {
      "inputs": [
        {
          "internalType": "uint256",
          "name": "tokenId",
          "type": "uint256"
        }
      ],
      "name": "getVoucherInfo",
      "outputs": [
        {
          "components": [
            {
              "internalType": "uint256",
              "name": "tokenId",
              "type": "uint256"
            },
            {
              "internalType": "uint16",
              "name": "programId",
              "type": "uint16"
            },
            {
              "internalType": "string",
              "name": "programName",
              "type": "string"
            },
            {
              "internalType": "uint256",
              "name": "amount",
              "type": "uint256"
            },
            {
              "internalType": "uint256",
              "name": "expiryDate",
              "type": "uint256"
            },
            {
              "internalType": "uint16",
              "name": "status",
              "type": "uint16"
            },
            {
              "internalType": "address",
              "name": "owner",
              "type": "address"
            }
          ],
          "internalType": "struct VoucherDTO.VoucherInfo",
          "name": "",
          "type": "tuple"
        }
      ],
      "stateMutability": "view",
      "type": "function"
    },
    {
      "inputs": [
        {
          "internalType": "uint16",
          "name": "programId",
          "type": "uint16"
        }
      ],
      "name": "getVoucherProgram",
      "outputs": [
        {
          "components": [
            {
              "internalType": "uint16",
              "name": "programId",
              "type": "uint16"
            },
            {
              "internalType": "address",
              "name": "issuer",
              "type": "address"
            },
            {
              "internalType": "string",
              "name": "name",
              "type": "string"
            },
            {
              "internalType": "uint256",
              "name": "amount",
              "type": "uint256"
            },
            {
              "internalType": "uint256",
              "name": "expiryDate",
              "type": "uint256"
            },
            {
              "internalType": "uint16",
              "name": "totalSupply",
              "type": "uint16"
            },
            {
              "internalType": "uint16",
              "name": "mintedSupply",
              "type": "uint16"
            },
            {
              "internalType": "string",
              "name": "category",
              "type": "string"
            },
            {
              "internalType": "bool",
              "name": "exists",
              "type": "bool"
            }
          ],
          "internalType": "struct VoucherDTO.VoucherProgram",
          "name": "",
          "type": "tuple"
        }
      ],
      "stateMutability": "view",
      "type": "function"
    },
    {
      "inputs": [
        {
          "internalType": "uint256",
          "name": "tokenId",
          "type": "uint256"
        }
      ],
      "name": "getTokenURI",
      "outputs": [
        {
          "internalType": "string",
          "name": "",
          "type": "string"
        }
      ],
      "stateMutability": "view",
      "type": "function"
    },
    {
      "inputs": [
        {
          "internalType": "uint256",
          "name": "tokenId",
          "type": "uint256"
        }
      ],
      "name": "tokenURI",
      "outputs": [
        {
          "internalType": "string",
          "name": "",
          "type": "string"
        }
      ],
      "stateMutability": "view",
      "type": "function"
    },
    {
      "inputs": [
        {
          "internalType": "uint256",
          "name": "tokenId",
          "type": "uint256"
        }
      ],
      "name": "isValidVoucher",
      "outputs": [
        {
          "internalType": "bool",
          "name": "",
          "type": "bool"
        },
        {
          "components": [
            {
              "internalType": "uint256",
              "name": "tokenId",
              "type": "uint256"
            },
            {
              "internalType": "uint16",
              "name": "programId",
              "type": "uint16"
            },
            {
              "internalType": "string",
              "name": "programName",
              "type": "string"
            },
            {
              "internalType": "uint256",
              "name": "amount",
              "type": "uint256"
            },
            {
              "internalType": "uint256",
              "name": "expiryDate",
              "type": "uint256"
            },
            {
              "internalType": "uint16",
              "name": "status",
              "type": "uint16"
            },
            {
              "internalType": "address",
              "name": "owner",
              "type": "address"
            }
          ],
          "internalType": "struct VoucherDTO.VoucherInfo",
          "name": "",
          "type": "tuple"
        }
      ],
      "stateMutability": "view",
      "type": "function"
    },
    {
      "inputs": [
        {
          "internalType": "bytes4",
          "name": "interfaceId",
          "type": "bytes4"
        }
      ],
      "name": "supportsInterface",
      "outputs": [
        {
          "internalType": "bool",
          "name": "",
          "type": "bool"
        }
      ],
      "stateMutability": "view",
      "type": "function"
    }
  ],
  "bytecode": "0x61014080604052346200045157620000178162000456565b60078152662b37bab1b432b960c91b602080830182815260405191936200003e8362000456565b60019182845285840190603160f81b8252604051956200005e8762000456565b600787528787015260405193620000758562000456565b60048552632b21a42960e11b8886015286516001600160401b03979095908887116200043b576000968754918483811c9316801562000430575b8c841014620003335781908c601f94858111620003da575b50508c908d8584116001146200037257508a9262000366575b5050600019600383901b1c191690841b1787555b815191898311620003525783548481811c9116801562000347575b8c8210146200033357908b828486959411620002db575b50508b918311600114620002765788926200026a575b5050600019600383901b1c191690821b1790555b600a8054336001600160a01b0319821681179092556040519491906001600160a01b03167f8be0079c531659141344cd1fd0a4f28419497f9722a3daafe3b4186f6b6457e08780a351902093519020918360e052610100958387524660a0528201927f8b73c3c69bb8fe3d512ecc4cf759cc79239f7b179b0ffacaa9a75d522b39400f94858552604084015260608301524660808301523060a083015260a0825260c082019482861090861117620002565750836040525190206080523060c052610120908152612ec8928362000473843960805183612945015260a05183612a10015260c0518361290f015260e05183612994015251826129ba015251816129710152f35b634e487b7160e01b81526041600452602490fd5b0151905038806200013c565b8489528b89208594509190601f1984168a8e5b828210620002c35750508411620002a9575b505050811b01905562000150565b015160001960f88460031b161c191690553880806200029b565b83850151865588979095019493840193018e62000289565b9091929350858a5283828b209181870160051c830193871062000329575b91869588929594930160051c01915b8281106200031a57508d915062000126565b8b815586955087910162000308565b92508192620002f9565b634e487b7160e01b89526022600452602489fd5b90607f16906200010f565b634e487b7160e01b88526041600452602488fd5b015190503880620000e0565b9190879450601f1984168c8052838d20938d905b828210620003c05750508411620003a6575b505050811b018755620000f4565b015160001960f88460031b161c1916905538808062000398565b8484015186558a9790950194938401939081019062000386565b909192508a805284828c209181860160051c830193861062000426575b918891869594930160051c01915b8281106200041757508e9150620000c7565b8c815585945088910162000405565b92508192620003f7565b92607f1692620000af565b634e487b7160e01b600052604160045260246000fd5b600080fd5b604081019081106001600160401b038211176200043b5760405256fe608080604052600436101561001357600080fd5b60003560e01c90816301ffc9a714611bb25750806303e1597914611b8657806304199e651461152c57806306fdde0314611489578063081812fc1461146b578063095ea7b3146112f157806318160ddd146112d35780631a0f126d1461112a57806323b872dd146111015780632f745c591461104f5780633bb3a24d14610adb57806342842e0e146110165780634a0ab96014610fdb5780634f6ccce714610f4a5780636352211e14610f1a57806370a0823114610eef578063715018a614610e9257806377628b2d14610ddc5780638da5cb5b14610db3578063944d03be14610d2557806395d89b4114610c5a578063a22cb46514610b95578063b88d4fde14610b45578063bffb29e714610b12578063c87b56dd14610adb578063cefbc2bc14610527578063d8554035146104ec578063df7771a0146104c0578063e1e710f0146102e2578063e94ebe01146102a3578063e985e9c51461024d5763f2fde38b1461017f57600080fd5b3461024857602036600319011261024857610198611c5e565b6101a0611e34565b6001600160a01b039081169081156101f457600a54826bffffffffffffffffffffffff60a01b821617600a55167f8be0079c531659141344cd1fd0a4f28419497f9722a3daafe3b4186f6b6457e0600080a3005b60405162461bcd60e51b815260206004820152602660248201527f4f776e61626c653a206e6577206f776e657220697320746865207a65726f206160448201526564647265737360d01b6064820152608490fd5b600080fd5b3461024857604036600319011261024857610266611c5e565b61026e611c48565b9060018060a01b03809116600052600560205260406000209116600052602052602060ff604060002054166040519015158152f35b34610248576020366003190112610248576001600160a01b036102c4611c5e565b166000526010602052602060ff604060002054166040519015158152f35b346102485760a0366003190112610248576064356044356024356004356001600160401b036084358181116102485761031f903690600401611ce7565b9480421161047b5761033083611f4f565b958360005260116020526040600020549260405160208101907fb56094dcb691b336573ba927877fea1597467106194f2ecd5f05dcfcbef944a0825286604082015260018060a01b0394858b16968760608401523360808401528960a08401528a60c084015260e0830152610100908183015281526103ae81611c8f565b519020916103ba61290c565b60405193602085019161190160f01b8352602286015260428501526042845260808401928484109084111761046557610404936103fc93604052519020612845565b91909161272b565b160361042057610415933391612c4e565b602060405160018152f35b60405162461bcd60e51b815260206004820152601a60248201527f566f75636865723a20696e76616c6964207369676e61747572650000000000006044820152606490fd5b634e487b7160e01b600052604160045260246000fd5b60405162461bcd60e51b815260206004820152601a60248201527f566f75636865723a207369676e617475726520657870697265640000000000006044820152606490fd5b346102485760203660031901126102485760043560005260116020526020604060002054604051908152f35b346102485760003660031901126102485760206040517fb56094dcb691b336573ba927877fea1597467106194f2ecd5f05dcfcbef944a08152f35b346102485760c036600319011261024857610540611c37565b6024356001600160401b0381116102485761055f903690600401611ce7565b9060843561ffff811681036102485760a4356001600160401b0381116102485761058d903690600401611ce7565b610595611e34565b61ffff831615610a965761ffff8316600052600c60205260ff60066040600020015416610a5157835115610a16576105d060443515156125fb565b6105dd4260643511612647565b61ffff8216156109d957604051936105f485611c8f565b61ffff8481168087523360208089019182526040808a0186905260443560608b015260643560808b015287851660a08b0152600060c08b0181905260e08b0188905260016101008c0152938452600c9091529091208751815492516001600160b01b031990931693169290921760109190911b62010000600160b01b031617815560408601518051906001600160401b03821161046557819061069a6001850154611f75565b601f8111610986575b50602090601f831160011461091457600092610909575b50508160011b916000199060031b1c19161760018201555b60608601516002820155608086015160038201556107226004820161ffff60a08901511661ffff1982541617815561ffff60c08901511663ffff000082549160101b169063ffff00001916179055565b60e08601519586516001600160401b038111610465576107456005840154611f75565b97601f89116108c2575b602098508890601f8311600114610828576107c793837fa37bf109eaffcec4e9f3bbbf3f8db56ede002a8e01f2d0fb85879223f3f61f069796946006946101009460009261081d575b50508160011b916000199060031b1c19161760058501555b0151151591019060ff801983541691151516179055565b61ffff6107df6040519260a0845260a0840190611d2e565b9460443588840152606435604084015216606082015280840360808201528061080e339561ffff881695611d2e565b0390a361ffff60405191168152f35b015190508d80610798565b9060058501600052896000209160005b601f19851681106108ab575093600184600694610100946107c7987fa37bf109eaffcec4e9f3bbbf3f8db56ede002a8e01f2d0fb85879223f3f61f069b9a98601f19811610610892575b505050811b0160058501556107b0565b015160001960f88460031b161c191690558d8080610882565b91928b600181928685015181550194019201610838565b600584016000526020600020601f830160051c810160208410610902575b601f8b0160051c820181106108f657505061074f565b600081556001016108e0565b50806108e0565b0151905088806106ba565b9250600184016000526020600020906000935b601f198416851061096b576001945083601f19811610610952575b505050811b0160018201556106d2565b015160001960f88460031b161c19169055888080610942565b81810151835560209485019460019093019290910190610927565b909150600184016000526020600020601f840160051c8101602085106109d2575b90849392915b601f830160051c820181106109c35750506106a3565b600081558594506001016109ad565b50806109a7565b60405162461bcd60e51b8152602060048201526015602482015274566f75636865723a20656d70747920737570706c7960581b6044820152606490fd5b60405162461bcd60e51b8152602060048201526013602482015272566f75636865723a20656d707479206e616d6560681b6044820152606490fd5b60405162461bcd60e51b815260206004820152601760248201527f566f75636865723a2070726f6772616d206578697374730000000000000000006044820152606490fd5b60405162461bcd60e51b815260206004820152601860248201527f566f75636865723a20696e76616c69642070726f6772616d00000000000000006044820152606490fd5b3461024857602036600319011261024857610b0e610afa600435612ba3565b604051918291602083526020830190611d2e565b0390f35b3461024857602036600319011261024857610b0e610b31600435612abb565b604051918291602083526020830190611da3565b3461024857608036600319011261024857610b5e611c5e565b610b66611c48565b606435916001600160401b03831161024857610b89610b93933690600401611ce7565b91604435916120f5565b005b3461024857610ba336611e05565b6001600160a01b0390911690338214610c1557336000526005602052604060002082600052602052610be58160406000209060ff801983541691151516179055565b60405190151581527f17307eab39ab6107e8899845ad3d59bd9653f200f220920489ca2b5937696c3160203392a3005b60405162461bcd60e51b815260206004820152601960248201527f4552433732313a20617070726f766520746f2063616c6c6572000000000000006044820152606490fd5b346102485760003660031901126102485760405160006001805490610c7e82611f75565b80855291818116908115610cfe5750600114610ca5575b610b0e84610afa81860382611cab565b600081815292507fb10e2d527612073b26eecdfd717e6a320cf44b4afac2b0732d9fcbe2b7fa0cf65b828410610ce6575050508101602001610afa82610c95565b80546020858701810191909152909301928101610cce565b60ff191660208087019190915292151560051b85019092019250610afa9150839050610c95565b3461024857608036600319011261024857600435610d41611c48565b610d4a82611f4f565b336001600160a01b0390911603610d6e576104159160643591604435913390612c4e565b60405162461bcd60e51b815260206004820152601c60248201527f566f75636865723a2063616c6c6572206973206e6f74206f776e6572000000006044820152606490fd5b3461024857600036600319011261024857600a546040516001600160a01b039091168152602090f35b3461024857610dea36611e05565b90610df3611e34565b6001600160a01b0316908115610e545760207fe278be004e32c31681c3a91829decc2c525aafd7a8eaa9e2bfae82c086140ac2918360005260108252610e498160406000209060ff801983541691151516179055565b6040519015158152a2005b60405162461bcd60e51b8152602060048201526016602482015275159bdd58da195c8e881e995c9bc81b595c98da185b9d60521b6044820152606490fd5b3461024857600036600319011261024857610eab611e34565b600a80546001600160a01b031981169091556000906001600160a01b03167f8be0079c531659141344cd1fd0a4f28419497f9722a3daafe3b4186f6b6457e08280a3005b34610248576020366003190112610248576020610f12610f0d611c5e565b611e8c565b604051908152f35b34610248576020366003190112610248576020610f38600435611f4f565b6040516001600160a01b039091168152f35b3461024857602036600319011261024857600435600854811015610f8157610f736020916125ae565b90546040519160031b1c8152f35b60405162461bcd60e51b815260206004820152602c60248201527f455243373231456e756d657261626c653a20676c6f62616c20696e646578206f60448201526b7574206f6620626f756e647360a01b6064820152608490fd5b3461024857602036600319011261024857610ff7600435612bdb565b90610b0e60405192839215158352604060208401526040830190611da3565b346102485761102436611d6e565b6040519160208301938385106001600160401b0386111761046557610b9394604052600084526120f5565b3461024857604036600319011261024857611068611c5e565b6024359061107581611e8c565b8210156110a85760018060a01b031660005260066020526040600020906000526020526020604060002054604051908152f35b60405162461bcd60e51b815260206004820152602b60248201527f455243373231456e756d657261626c653a206f776e657220696e646578206f7560448201526a74206f6620626f756e647360a81b6064820152608490fd5b3461024857610b9361111236611d6e565b916111256111208433612190565b612093565b612258565b346102485760203660031901126102485761ffff611146611c37565b600061010060405161115781611c8f565b828152826020820152606060408201528260608201528260808201528260a08201528260c0820152606060e082015201521680600052600c6020526111a660ff60066040600020015416612693565b600052600c602052604060002060ff6006604051926111c484611c8f565b805461ffff8116855260101c6001600160a01b031660208501526111ea60018201611faf565b6040850152600281015460608501526003810154608085015261ffff600482015481811660a087015260101c1660c085015261122860058201611faf565b60e0850152015416151561010082015260405180916020825261ffff815116602083015260018060a01b03602082015116604083015260408101516101006112c661128161012093846060880152610140870190611d2e565b60608501516080870152608085015160a087015261ffff60a08601511660c087015261ffff60c08601511660e087015260e0850151601f198783030184880152611d2e565b9201511515908301520390f35b34610248576000366003190112610248576020600854604051908152f35b346102485760403660031901126102485761130a611c5e565b602435906001600160a01b03808061132185611f4f565b1692169180831461141c578033149081156113f7575b501561138c57600083815260046020526040902080546001600160a01b0319168317905561136483611f4f565b167f8c5be1e5ebec7d5bd14f71427d1e84f3dd0314c0f7b2291e5b200ac8c7c3b925600080a4005b60405162461bcd60e51b815260206004820152603d60248201527f4552433732313a20617070726f76652063616c6c6572206973206e6f7420746f60448201527f6b656e206f776e6572206f7220617070726f76656420666f7220616c6c0000006064820152608490fd5b9050600052600560205260406000203360005260205260ff6040600020541684611337565b60405162461bcd60e51b815260206004820152602160248201527f4552433732313a20617070726f76616c20746f2063757272656e74206f776e656044820152603960f91b6064820152608490fd5b34610248576020366003190112610248576020610f38600435612055565b3461024857600036600319011261024857604051600080546114aa81611f75565b80845290600190818116908115610cfe57506001146114d357610b0e84610afa81860382611cab565b600080805292507f290decd9548b62a8d60345a988386fc84ba6bc95484008f6362f93160ef3e5635b828410611514575050508101602001610afa82610c95565b805460208587018101919091529093019281016114fc565b3461024857606036600319011261024857611545611c37565b61154d611c48565b906044356001600160401b0381116102485761156d903690600401611ce7565b90611576611e34565b6001600160a01b03831615611b415761ffff8116600052600c6020526040600020916115a860ff600685015416612693565b600483015461ffff8082169160101c161015611afc576115cd60038401544210612647565b6001600b54019283600b55600161ffff600483015460101c160161ffff8111611ae65761161290600483019063ffff000082549160101b169063ffff00001916179055565b600084815260026020526040902054611637906001600160a01b031615155b156126df565b60085484600052600960205280604060002055600160401b811015610465578461166a82600161168394016008556125ae565b90919082549060031b91821b91600019901b1916179055565b61168c85611e8c565b6001600160a01b038681166000908152600660209081526040808320858452825280832089905588835260078252808320949094556002905291909120546116d691161515611631565b6001600160a01b0385166000818152600360209081526040808320805460010190558783526002909152812080546001600160a01b031916831790558591907fddf252ad1be2c89b69c2b068fc378daa952ba7f163c4a11628f55a4df523b3ef8180a4600e602052604060002082516001600160401b0381116104655761175d8254611f75565b601f8111611aa2575b50806020601f8211600114611a3b57600091611a30575b508160011b916000199060031b1c19161790555b60028101549084600052600f602052816040600020556003810154604051926117b984611c74565b86845261ffff861660208501526117d260018401611faf565b604085015260608401526080830152600160a083015260018060a01b03861660c083015284600052600d602052604060002091805183556001830161ffff60208301511661ffff1982541617905560408101518051906001600160401b038211610465576118436002860154611f75565b601f81116119e9575b5091879391602099938a90601f831160011461194d5796826118fe94936005937fd855ae1944f04bcea822f74c5fdcb35f6ca3e6832d020782ba3c8283ff6feda1999a600092611942575b50508160011b916000199060031b1c19161760028201555b606083015160038201556080830151600482015560a08301519101805460c09093015162010000600160b01b0360109190911b1661ffff9092166001600160b01b031990931692909217179055565b61193761ffff600360028401549301549360405194859485528b8501526060604085015260018060a01b03169716956060830190611d2e565b0390a4604051908152f35b015190508e80611897565b600288939298016000528b6000209060005b601f19841681106119cf5750826118fe9594927fd855ae1944f04bcea822f74c5fdcb35f6ca3e6832d020782ba3c8283ff6feda1999a600193600596601f198116106119b6575b505050811b0160028201556118af565b015160001960f88460031b161c191690558e80806119a6565b818a01518355988d01988c98506001909201918d0161195f565b600286016000526020600020601f840160051c810160208510611a29575b601f830160051c82018110611a1d57505061184c565b60008155600101611a07565b5080611a07565b90508401518861177d565b91508260005260206000206000925b601f1983168410611a8a576001935082601f19811610611a71575b5050811b019055611791565b86015160001960f88460031b161c191690558880611a65565b86810151825560209384019360019092019101611a4a565b826000526020600020601f830160051c810160208410611adf575b601f830160051c82018110611ad3575050611766565b60008155600101611abd565b5080611abd565b634e487b7160e01b600052601160045260246000fd5b60405162461bcd60e51b815260206004820152601860248201527f566f75636865723a20737570706c7920657863656564656400000000000000006044820152606490fd5b60405162461bcd60e51b815260206004820152601760248201527f566f75636865723a207a65726f20726563697069656e740000000000000000006044820152606490fd5b3461024857602036600319011261024857600435600052600f6020526020604060002054604051908152f35b34610248576020366003190112610248576004359063ffffffff60e01b82168092036102485760209163780e9d6360e01b8114908115611bf4575b5015158152f35b6380ac58cd60e01b811491508115611c26575b8115611c15575b5083611bed565b6301ffc9a760e01b14905083611c0e565b635b5e139f60e01b81149150611c07565b6004359061ffff8216820361024857565b602435906001600160a01b038216820361024857565b600435906001600160a01b038216820361024857565b60e081019081106001600160401b0382111761046557604052565b61012081019081106001600160401b0382111761046557604052565b90601f801991011681019081106001600160401b0382111761046557604052565b6001600160401b03811161046557601f01601f191660200190565b81601f8201121561024857803590611cfe82611ccc565b92611d0c6040519485611cab565b8284526020838301011161024857816000926020809301838601378301015290565b919082519283825260005b848110611d5a575050826000602080949584010152601f8019910116010190565b602081830181015184830182015201611d39565b6060906003190112610248576001600160a01b0390600435828116810361024857916024359081168103610248579060443590565b908151815260c061ffff92836020820151166020840152611dd3604082015160e0604086015260e0850190611d2e565b93606082015160608501526080820151608085015260a08201511660a08401528160018060a01b039101511691015290565b6040906003190112610248576004356001600160a01b0381168103610248579060243580151581036102485790565b600a546001600160a01b03163303611e4857565b606460405162461bcd60e51b815260206004820152602060248201527f4f776e61626c653a2063616c6c6572206973206e6f7420746865206f776e65726044820152fd5b6001600160a01b03168015611eac57600052600360205260406000205490565b60405162461bcd60e51b815260206004820152602960248201527f4552433732313a2061646472657373207a65726f206973206e6f7420612076616044820152683634b21037bbb732b960b91b6064820152608490fd5b15611f0a57565b60405162461bcd60e51b815260206004820152601860248201527f4552433732313a20696e76616c696420746f6b656e20494400000000000000006044820152606490fd5b6000908152600260205260409020546001600160a01b0316611f72811515611f03565b90565b90600182811c92168015611fa5575b6020831014611f8f57565b634e487b7160e01b600052602260045260246000fd5b91607f1691611f84565b9060405191826000825492611fc384611f75565b9081845260019485811690816000146120325750600114611fef575b5050611fed92500383611cab565b565b9093915060005260209081600020936000915b81831061201a575050611fed93508201013880611fdf565b85548884018501529485019487945091830191612002565b915050611fed94506020925060ff191682840152151560051b8201013880611fdf565b600081815260026020526040902054612078906001600160a01b03161515611f03565b6000908152600460205260409020546001600160a01b031690565b1561209a57565b60405162461bcd60e51b815260206004820152602d60248201527f4552433732313a2063616c6c6572206973206e6f7420746f6b656e206f776e6560448201526c1c881bdc88185c1c1c9bdd9959609a1b6064820152608490fd5b906121199392916121096111208433612190565b612114838383612258565b612489565b1561212057565b60405162461bcd60e51b8152806121396004820161213d565b0390fd5b60809060208152603260208201527f4552433732313a207472616e7366657220746f206e6f6e20455243373231526560408201527131b2b4bb32b91034b6b83632b6b2b73a32b960711b60608201520190565b906001600160a01b0380806121a484611f4f565b169316918383149384156121d7575b5083156121c1575b50505090565b6121cd91929350612055565b16143880806121bb565b909350600052600560205260406000208260005260205260ff6040600020541692386121b3565b1561220557565b60405162461bcd60e51b815260206004820152602560248201527f4552433732313a207472616e736665722066726f6d20696e636f72726563742060448201526437bbb732b960d91b6064820152608490fd5b61227c9161226584611f4f565b6001600160a01b03938484169391851684146121fe565b83821693841561243857839182612395575090506008549085600052600960205281604060002055600160401b821015610465576122e2926122c98761166a8560018997016008556125ae565b828603612362575b506122db86611f4f565b16146121fe565b7fddf252ad1be2c89b69c2b068fc378daa952ba7f163c4a11628f55a4df523b3ef60008481526004602052604081206bffffffffffffffffffffffff60a01b9081815416905583825260036020526040822060001981540190558482526040822060018154019055858252600260205284604083209182541617905580a4565b61236b90611e8c565b604060008781526006602052818120838252602052888282205588815260076020522055386122d1565b8583036123a7575b506122e2926122c9565b6123b2919250611e8c565b600019810191908211611ae6576122e29284926000908882526020906007825260409182842054828103612401575b508a8452838381205586845260068152828420918452528120559261239d565b87855260068252838520838652825283852054888652600683528486208287528352808587205585526007825283852055386123e1565b60405162461bcd60e51b8152602060048201526024808201527f4552433732313a207472616e7366657220746f20746865207a65726f206164646044820152637265737360e01b6064820152608490fd5b9293600093909291803b156125a3579484916124e39660405180948193630a85bd0160e11b9788845233600485015260018060a01b0380921660248501526044840152608060648401528260209b8c976084830190611d2e565b0393165af184918161255f575b5061254e575050503d600014612546573d61250a81611ccc565b906125186040519283611cab565b81528091833d92013e5b805191826125435760405162461bcd60e51b8152806121396004820161213d565b01fd5b506060612522565b6001600160e01b0319161492509050565b9091508581813d831161259c575b6125778183611cab565b8101031261259857516001600160e01b0319811681036125985790386124f0565b8480fd5b503d61256d565b505050915050600190565b6008548110156125e55760086000527ff3f7a9fe364faab93b216da50a3214154f22a0a2b415b23a84c8169e8b636ee30190600090565b634e487b7160e01b600052603260045260246000fd5b1561260257565b60405162461bcd60e51b815260206004820152601760248201527f566f75636865723a20616d6f756e74206973207a65726f0000000000000000006044820152606490fd5b1561264e57565b60405162461bcd60e51b815260206004820152601860248201527f566f75636865723a2070726f6772616d206578706972656400000000000000006044820152606490fd5b1561269a57565b60405162461bcd60e51b815260206004820152601860248201527f566f75636865723a206d697373696e672070726f6772616d00000000000000006044820152606490fd5b156126e657565b60405162461bcd60e51b815260206004820152601c60248201527f4552433732313a20746f6b656e20616c7265616479206d696e746564000000006044820152606490fd5b600581101561282f578061273c5750565b600181036127895760405162461bcd60e51b815260206004820152601860248201527f45434453413a20696e76616c6964207369676e617475726500000000000000006044820152606490fd5b600281036127d65760405162461bcd60e51b815260206004820152601f60248201527f45434453413a20696e76616c6964207369676e6174757265206c656e677468006044820152606490fd5b6003146127df57565b60405162461bcd60e51b815260206004820152602260248201527f45434453413a20696e76616c6964207369676e6174757265202773272076616c604482015261756560f01b6064820152608490fd5b634e487b7160e01b600052602160045260246000fd5b9060418151146000146128735761286f916020820151906060604084015193015160001a9061287d565b9091565b5050600090600290565b9291907f7fffffffffffffffffffffffffffffff5d576e7357a4501ddfe92f46681b20a083116129005791608094939160ff602094604051948552168484015260408301526060820152600093849182805260015afa156128f35781516001600160a01b038116156128ed579190565b50600190565b50604051903d90823e3d90fd5b50505050600090600390565b307f00000000000000000000000000000000000000000000000000000000000000006001600160a01b03161480612a0d575b15612967577f000000000000000000000000000000000000000000000000000000000000000090565b60405160208101907f000000000000000000000000000000000000000000000000000000000000000082527f000000000000000000000000000000000000000000000000000000000000000060408201527f000000000000000000000000000000000000000000000000000000000000000060608201524660808201523060a082015260a0815260c081018181106001600160401b038211176104655760405251902090565b507f0000000000000000000000000000000000000000000000000000000000000000461461293e565b60405190612a4382611c74565b8160c0600091828152826020820152606060408201528260608201528260808201528260a08201520152565b15612a7657565b60405162461bcd60e51b815260206004820152601a60248201527f566f75636865723a206e6f6e6578697374656e7420746f6b656e0000000000006044820152606490fd5b612ac3612a36565b50600081815260026020526040902054612ae7906001600160a01b03161515612a6f565b80600052600d602052604060002060405191612b0283611c74565b8154835261ffff91826001820154166020850152612b2260028201611faf565b604085015260038101549160608501928352600560048301549260808701938452015460a086019481168552612b7b60c087019260018060a01b03809360101c16845280600052600f6020526040600020548652611f4f565b1690525142119081612b98575b50612b91575090565b6003905290565b905051151538612b88565b600081815260026020526040902054612bc6906001600160a01b03161515612a6f565b600052600e602052611f726040600020611faf565b612be3612a36565b506000818152600260205260409020546001600160a01b031615612c4057612c0a90612abb565b90600161ffff60a0840151161480612c33575b80612c26579190565b5060808201514211159190565b5060608201511515612c1d565b50612c49612a36565b600091565b919060018060a01b0380921694600086815260206010815260409060ff828420541615612e5057612c808815156125fb565b868352600d81528183209060058201600161ffff82541603612e0c5760048301544211612dc857888552600f825283852054928a8410612d84578a840395848711612d70578a8152600f845286868220556011845285812080549160018301809311612d70575055600301859055805462010000600160b01b031916601088901b62010000600160b01b03161781557f04e60ba8160e88e21c3d0876c6c40aeb5d3f1bef3d1255621949341b08d221fd976080979096909590949093909290918b8314612d5e575b5082519a8b528a015288015260608701521693a4565b805461ffff1916600217905538612d48565b634e487b7160e01b81526011600452602490fd5b845162461bcd60e51b815260048101849052601d60248201527f566f75636865723a20696e73756666696369656e742062616c616e63650000006044820152606490fd5b835162461bcd60e51b815260048101839052601860248201527f566f75636865723a206578706972656420766f756368657200000000000000006044820152606490fd5b835162461bcd60e51b815260048101839052601960248201527f566f75636865723a20696e61637469766520766f7563686572000000000000006044820152606490fd5b606491519062461bcd60e51b82526004820152601c60248201527f566f75636865723a20756e617070726f766564206d65726368616e74000000006044820152fdfea26469706673582212209438031dddcfe4903ec03c5fe521b97d7173bcb912429abd4182e7a9fbf6801064736f6c63430008130033",
  "immutableReferences": {
    "3243": [
      {
        "length": 32,
        "start": 10565
      }
    ],
    "3245": [
      {
        "length": 32,
        "start": 10768
      }
    ],
    "3247": [
      {
        "length": 32,
        "start": 10511
      }
    ],
    "3249": [
      {
        "length": 32,
        "start": 10644
      }
    ],
    "3251": [
      {
        "length": 32,
        "start": 10682
      }
    ],
    "3253": [
      {
        "length": 32,
        "start": 10609
      }
    ]
  },
  "source": "// SPDX-License-Identifier: MIT\npragma solidity >=0.8.0 <0.9.0;\n\nimport \"@openzeppelin/contracts/access/Ownable.sol\";\nimport \"@openzeppelin/contracts/token/ERC721/extensions/ERC721Enumerable.sol\";\nimport \"@openzeppelin/contracts/utils/Counters.sol\";\nimport \"@openzeppelin/contracts/utils/cryptography/ECDSA.sol\";\nimport \"@openzeppelin/contracts/utils/cryptography/EIP712.sol\";\nimport \"./VoucherDTO.sol\";\n\ncontract Voucher is ERC721Enumerable, Ownable, EIP712, VoucherDTO {\n    using Counters for Counters.Counter;\n\n    bytes32 public constant USE_VOUCHER_TYPEHASH =\n        keccak256(\n            \"UseVoucher(uint256 tokenId,address user,address merchant,uint256 amount,bytes32 metadataHash,uint256 nonce,uint256 deadline)\"\n        );\n\n    Counters.Counter private _tokenIds;\n\n    mapping(uint16 => VoucherProgram) private _voucherPrograms;\n    mapping(uint256 => VoucherInfo) private _voucherInfos;\n    mapping(uint256 => string) private _tokenURIs;\n\n    mapping(uint256 => uint256) public voucherValue;\n    mapping(address => bool) public approvedMerchant;\n    mapping(uint256 => uint256) public useNonce;\n\n    event VoucherProgramCreated(\n        uint16 indexed programId,\n        address indexed issuer,\n        string name,\n        uint256 amount,\n        uint256 expiryDate,\n        uint16 totalSupply,\n        string category\n    );\n\n    event VoucherMinted(\n        uint256 indexed tokenId,\n        uint16 indexed programId,\n        address indexed recipient,\n        uint256 amount,\n        uint256 expiryDate,\n        string tokenURI\n    );\n\n    event MerchantApproved(address indexed merchant, bool approved);\n\n    event VoucherUsed(\n        uint256 indexed tokenId,\n        address indexed user,\n        address indexed merchant,\n        uint256 amount,\n        uint256 oldValue,\n        uint256 newValue,\n        bytes32 metadataHash\n    );\n\n    constructor() ERC721(\"Voucher\", \"VCHR\") EIP712(\"Voucher\", \"1\") {}\n\n    function createVoucherProgram(\n        uint16 programId,\n        string memory name,\n        uint256 amount,\n        uint256 expiryDate,\n        uint16 totalSupply,\n        string memory category\n    ) public onlyOwner returns (uint16) {\n        require(programId != 0, \"Voucher: invalid program\");\n        require(!_voucherPrograms[programId].exists, \"Voucher: program exists\");\n        require(bytes(name).length > 0, \"Voucher: empty name\");\n        require(amount > 0, \"Voucher: amount is zero\");\n        require(expiryDate > block.timestamp, \"Voucher: program expired\");\n        require(totalSupply > 0, \"Voucher: empty supply\");\n\n        _voucherPrograms[programId] = VoucherProgram(\n            programId,\n            msg.sender,\n            name,\n            amount,\n            expiryDate,\n            totalSupply,\n            0,\n            category,\n            true\n        );\n\n        emit VoucherProgramCreated(programId, msg.sender, name, amount, expiryDate, totalSupply, category);\n\n        return programId;\n    }\n\n    function mintVoucher(\n        uint16 programId,\n        address recipient,\n        string memory uri\n    ) public onlyOwner returns (uint256) {\n        require(recipient != address(0), \"Voucher: zero recipient\");\n\n        VoucherProgram storage program = _voucherPrograms[programId];\n        require(program.exists, \"Voucher: missing program\");\n        require(program.mintedSupply < program.totalSupply, \"Voucher: supply exceeded\");\n        require(program.expiryDate > block.timestamp, \"Voucher: program expired\");\n\n        _tokenIds.increment();\n        uint256 newTokenId = _tokenIds.current();\n\n        program.mintedSupply += 1;\n\n        _mint(recipient, newTokenId);\n        _tokenURIs[newTokenId] = uri;\n        voucherValue[newTokenId] = program.amount;\n        _voucherInfos[newTokenId] = VoucherInfo(\n            newTokenId,\n            programId,\n            program.name,\n            program.amount,\n            program.expiryDate,\n            1,\n            recipient\n        );\n\n        emit VoucherMinted(newTokenId, programId, recipient, program.amount, program.expiryDate, uri);\n\n        return newTokenId;\n    }\n\n    function approveMerchant(address merchant, bool approved) public onlyOwner {\n        require(merchant != address(0), \"Voucher: zero merchant\");\n        approvedMerchant[merchant] = approved;\n        emit MerchantApproved(merchant, approved);\n    }\n\n    function useVoucher(\n        uint256 tokenId,\n        address merchant,\n        uint256 amount,\n        bytes32 metadataHash\n    ) public returns (bool) {\n        require(ownerOf(tokenId) == msg.sender, \"Voucher: caller is not owner\");\n        _useVoucher(tokenId, msg.sender, merchant, amount, metadataHash);\n        return true;\n    }\n\n    function useVoucherByMerchant(\n        uint256 tokenId,\n        uint256 amount,\n        bytes32 metadataHash,\n        uint256 deadline,\n        bytes memory ownerSignature\n    ) public returns (bool) {\n        require(block.timestamp <= deadline, \"Voucher: signature expired\");\n\n        address user = ownerOf(tokenId);\n        uint256 nonce = useNonce[tokenId];\n        bytes32 structHash = keccak256(\n            abi.encode(USE_VOUCHER_TYPEHASH, tokenId, user, msg.sender, amount, metadataHash, nonce, deadline)\n        );\n        address signer = ECDSA.recover(_hashTypedDataV4(structHash), ownerSignature);\n        require(signer == user, \"Voucher: invalid signature\");\n\n        _useVoucher(tokenId, user, msg.sender, amount, metadataHash);\n        return true;\n    }\n\n    function getVoucherInfo(uint256 tokenId) public view returns (VoucherInfo memory) {\n        require(_exists(tokenId), \"Voucher: nonexistent token\");\n        VoucherInfo memory info = _voucherInfos[tokenId];\n        info.amount = voucherValue[tokenId];\n        info.owner = ownerOf(tokenId);\n        if (block.timestamp > info.expiryDate && info.amount > 0) {\n            info.status = 3;\n        }\n        return info;\n    }\n\n    function getVoucherProgram(uint16 programId) public view returns (VoucherProgram memory) {\n        require(_voucherPrograms[programId].exists, \"Voucher: missing program\");\n        return _voucherPrograms[programId];\n    }\n\n    function getTokenURI(uint256 tokenId) public view returns (string memory) {\n        require(_exists(tokenId), \"Voucher: nonexistent token\");\n        return _tokenURIs[tokenId];\n    }\n\n    function tokenURI(uint256 tokenId) public view override returns (string memory) {\n        return getTokenURI(tokenId);\n    }\n\n    function isValidVoucher(uint256 tokenId) public view returns (bool, VoucherInfo memory) {\n        if (!_exists(tokenId)) {\n            VoucherInfo memory emptyInfo;\n            return (false, emptyInfo);\n        }\n\n        VoucherInfo memory info = getVoucherInfo(tokenId);\n        bool valid = info.status == 1 && info.amount > 0 && block.timestamp <= info.expiryDate;\n        return (valid, info);\n    }\n\n    function supportsInterface(bytes4 interfaceId) public view override(ERC721Enumerable) returns (bool) {\n        return super.supportsInterface(interfaceId);\n    }\n\n    function _useVoucher(\n        uint256 tokenId,\n        address user,\n        address merchant,\n        uint256 amount,\n        bytes32 metadataHash\n    ) private {\n        require(approvedMerchant[merchant], \"Voucher: unapproved merchant\");\n        require(amount > 0, \"Voucher: amount is zero\");\n\n        VoucherInfo storage info = _voucherInfos[tokenId];\n        require(info.status == 1, \"Voucher: inactive voucher\");\n        require(block.timestamp <= info.expiryDate, \"Voucher: expired voucher\");\n\n        uint256 oldValue = voucherValue[tokenId];\n        require(oldValue >= amount, \"Voucher: insufficient balance\");\n\n        uint256 newValue = oldValue - amount;\n        voucherValue[tokenId] = newValue;\n        useNonce[tokenId] += 1;\n        info.amount = newValue;\n        info.owner = user;\n        if (newValue == 0) {\n            info.status = 2;\n        }\n\n        emit VoucherUsed(tokenId, user, merchant, amount, oldValue, newValue, metadataHash);\n    }\n}\n",
  "sourcePath": "/Users/hwangjonghoon/projects/blockchain-voucher-system/dev/blockchain/contracts/Voucher.sol",
  "compiler": {
    "name": "solc",
    "version": "0.8.19+commit.7dd6d404.Emscripten.clang"
  },
  "schemaVersion": "3.4.16",
  "updatedAt": "2026-05-07T10:13:45.813Z",
  "devdoc": {
    "events": {
      "Approval(address,address,uint256)": {
        "details": "Emitted when `owner` enables `approved` to manage the `tokenId` token."
      },
      "ApprovalForAll(address,address,bool)": {
        "details": "Emitted when `owner` enables or disables (`approved`) `operator` to manage all of its assets."
      },
      "Transfer(address,address,uint256)": {
        "details": "Emitted when `tokenId` token is transferred from `from` to `to`."
      }
    },
    "kind": "dev",
    "methods": {
      "approve(address,uint256)": {
        "details": "See {IERC721-approve}."
      },
      "balanceOf(address)": {
        "details": "See {IERC721-balanceOf}."
      },
      "getApproved(uint256)": {
        "details": "See {IERC721-getApproved}."
      },
      "isApprovedForAll(address,address)": {
        "details": "See {IERC721-isApprovedForAll}."
      },
      "name()": {
        "details": "See {IERC721Metadata-name}."
      },
      "owner()": {
        "details": "Returns the address of the current owner."
      },
      "ownerOf(uint256)": {
        "details": "See {IERC721-ownerOf}."
      },
      "renounceOwnership()": {
        "details": "Leaves the contract without owner. It will not be possible to call `onlyOwner` functions anymore. Can only be called by the current owner. NOTE: Renouncing ownership will leave the contract without an owner, thereby removing any functionality that is only available to the owner."
      },
      "safeTransferFrom(address,address,uint256)": {
        "details": "See {IERC721-safeTransferFrom}."
      },
      "safeTransferFrom(address,address,uint256,bytes)": {
        "details": "See {IERC721-safeTransferFrom}."
      },
      "setApprovalForAll(address,bool)": {
        "details": "See {IERC721-setApprovalForAll}."
      },
      "supportsInterface(bytes4)": {
        "details": "See {IERC165-supportsInterface}."
      },
      "symbol()": {
        "details": "See {IERC721Metadata-symbol}."
      },
      "tokenByIndex(uint256)": {
        "details": "See {IERC721Enumerable-tokenByIndex}."
      },
      "tokenOfOwnerByIndex(address,uint256)": {
        "details": "See {IERC721Enumerable-tokenOfOwnerByIndex}."
      },
      "tokenURI(uint256)": {
        "details": "See {IERC721Metadata-tokenURI}."
      },
      "totalSupply()": {
        "details": "See {IERC721Enumerable-totalSupply}."
      },
      "transferFrom(address,address,uint256)": {
        "details": "See {IERC721-transferFrom}."
      },
      "transferOwnership(address)": {
        "details": "Transfers ownership of the contract to a new account (`newOwner`). Can only be called by the current owner."
      }
    },
    "version": 1
  },
  "userdoc": {
    "kind": "user",
    "methods": {},
    "version": 1
  }
}